:020000040800F2
:10000000000003205D060008392600083B26000892
:100010003D2600083F260008412600080000000099
:10002000000000000000000000000000818B0008BC
:100030004326000800000000118C00088584000899
:10004000AD060008AD060008AD060008AD060008C4
:10005000AD060008AD060008AD060008AD060008B4
:10006000AD060008AD060008AD060008AD060008A4
:10007000AD060008AD060008AD060008AD06000894
:10008000AD060008AD060008AD060008AD06000884
:10009000AD060008AD060008AD060008AD06000874
:1000A000AD060008AD060008AD060008AD06000864
:1000B000AD060008AD060008AD060008AD06000854
:1000C000AD060008AD060008AD060008AD06000844
:1000D000AD060008AD060008AD060008AD06000834
:1000E000AD060008AD060008AD060008AD06000824
:1000F000AD060008AD060008AD060008AD06000814
:10010000AD060008AD060008AD060008AD06000803
:10011000AD060008AD06000845260008AD0600083B
:10012000AD060008AD060008AD060008AD060008E3
:10013000AD060008AD060008AD060008AD060008D3
:10014000AD060008AD060008AD060008AD060008C3
:10015000AD060008AD060008AD060008AD060008B3
:10016000AD060008AD060008AD060008AD060008A3
:10017000AD060008AD060008AD060008000000004E
:10018000AD060008AD060008AD060008AD06000883
:10019000AD060008AD060008AD060008AD06000873
:0C01A00051260008AD0600085D2600088E
:1001B00010B5054C237833B9044B13B10448AFF3A1
:1001C00000800123237010BD800300200000000088
:1001D0004C73020808B5034B1BB103490348AFF346
:1001E000008008BD00000000840300204C7302085A
:1001F00001F0FF01102A2BDB10F0070F08D010F8D8
:10020000013B013A8B422DD010F0070F42B3F6D1DB
:10021000F0B441EA012141EA014122F007047FF0F4
:1002200000070023F0E80256083C85EA010586EA4B
:10023000010685FA47F5A3FA87F586FA47F6A5FA87
:1002400087F68EB9EED1F0BC01F0FF0102F0070293
:1002500032B110F8013B013A83EA010313B1F8D13E
:100260000020704701387047002D06BF354603381F
:10027000073815F0010F07D1013015F4807F02BF58
:10028000013015F4C03F0130F0BC0138704700BFA9
:100290007BB972B90029BEBF00204FF0004106E0D3
:1002A00008BF00281CBF6FF000414FF0FF3000F086
:1002B000D3B9ADF1080C6DE904CE002909DB002BA0
:1002C0001ADB00F04DF8DDF804E0DDE9022304B0AC
:1002D0007047404261EB4101002B1BDB00F040F80E
:1002E000DDF804E0DDE9022304B0404261EB4101A6
:1002F000524263EB43037047524263EB430300F007
:100300002FF8DDF804E0DDE9022304B0404261EBA0
:1003100041017047524263EB430300F021F8DDF8DE
:1003200004E0DDE9022304B0524263EB430370476B
:1003300053B94AB9002908BF00281CBF4FF0FF314C
:100340004FF0FF3000F088B9ADF1080C6DE904CE34
:1003500000F006F8DDF804E0DDE9022304B07047A0
:100360002DE9F047089D8E4604468846002B4AD169
:100370008A42174662D9B2FA82F64EB1C6F120031C
:1003800001FA06F820FA03F3B74043EA0808B4403C
:100390004FEA174E1FFA87FCB8FBFEF1230C0EFB49
:1003A000118843EA084301FB0CF29A4209D9FB1871
:1003B00001F1FF3080F0EA809A4240F2E780023992
:1003C0003B449A1AA3B2B2FBFEF00EFB102243EAA2
:1003D000024300FB0CFC9C4509D9FB1800F1FF32DD
:1003E00080F0D6809C4540F2D3803B44023840EAFE
:1003F0000140A3EB0C0300211DB1F3400022C5E92D
:100400000032BDE8F0878B4205D90DB1C5E9000186
:1004100000210846F5E7B3FA83F1002946D1734578
:1004200002D3824200F20581841A6EEB030201209E
:100430009046002DE5D0C5E90048E2E7002A00F02B
:100440009080B2FA82F6002E40F0A4808A1A030C43
:100450004FEA174E80B2BCB20121B2FBFEFC0EFB8C
:100460001C2243EA024304FB0CF29A4207D9FB1810
:100470000CF1FF3802D29A4200F2E080C4469B1A87
:10048000B3FBFEF20EFB123340EA034302FB04F41B
:100490009C4207D9FB1802F1FF3002D29C4200F2C5
:1004A000CA8002461B1B42EA0C40A5E7C1F12006A8
:1004B0008B4022FA06F71F430EFA01F420FA06F3E6
:1004C0002EFA06FE4FEA1749234300FA01F81FFAF5
:1004D00087FCBEFBF9F01C0C09FB10EE44EA0E444D
:1004E00000FB0CFEA64502FA01F209D93C1900F105
:1004F000FF3A80F09C80A64540F2998002383C4447
:10050000A4EB0E041FFA83FEB4FBF9F309FB1344BA
:100510004EEA044403FB0CFCA44508D93C1903F142
:10052000FF3E80F08280A4457FD9023B3C4443EAF1
:100530000040A4EB0C04A0FB02EC64457346E146CA
:1005400062D35FD05DB1B8EB030264EB090404FA37
:1005500006F622FA01F31E43CC40C5E900640021EF
:100560004FE7B1FBF2FC010C41EA0E4180B240EAD8
:1005700001423B4638463C46B846BE462026B1FBC3
:10058000F7F1A2EB080241EA0C4166E7014618E7E1
:1005900010462CE7C6F120022EFA02F3B740B14014
:1005A00020FA02F24FEA174E0A43B3FBFEF8BCB240
:1005B0000EFB1833110C41EA034108FB04F9B0406B
:1005C00089454FEA104380B23ED9791808F1FF3CC3
:1005D00001D289451FD8A1EB0901B1FBFEF909FB46
:1005E00004F80EFB191192B242EA0142424529D2A7
:1005F000BA1809F1FF31C4D24245C2D2A9F10201B1
:100600003A44BEE7F0459DD2BEEB02036CEB070C0B
:100610000138E14696E7A7EB09094944A8F1020C25
:10062000B1FBFEF909FB04F8DBE773467FE75046B0
:1006300066E70846FDE63B44023A33E7ACF1020CBC
:100640003B441CE749469CE7A1EB0901C446B1FBCA
:10065000FEF909FB04F8C4E7704700BFDFF834D0A7
:10066000002103E00C4B5B58435004310B480C4B0A
:1006700042189A42F6D30B4A02E0002342F8043BA8
:10068000094B9A42F9D305F095F925F049FF01F09D
:1006900087F97047000003208486060800000020C8
:1006A000640100208003002090750120FEE7704760
:1006B00008B500F0BDFDBDE8084000F03FBD00F00A
:1006C000B9BD704710B50421044624F0C5FC20468E
:1006D00010BD000038B50C4B0C4C18800C4B822020
:1006E00019806368984740F6110398420AD1094D72
:1006F00023682C60822098472B688220DB6898470B
:10070000002038BD0120FCE7A60300204C0000209B
:10071000A4030020A80300204FF4A071F020FFF7ED
:10072000D9BF0000F7B5394D2B6804461B698220FC
:100730009847208000284ED02B680DF106025B6997
:1007400001A982209847324B1B78002B4BD0BDF873
:10075000062040F674639A423FD9ADF80630BDF8E2
:1007600006209B1A9BB20A2B42D90B22B3FBF2F351
:10077000284A1288934201D9013A93B2BDF8042065
:10078000254840F6B8318A4234D8C2F571620E323B
:10079000016892B20F25B2FBF5F2204D2D88AA42D6
:1007A00084BF05F1FF35AAB28A4215468EB22AD916
:1007B000921B91B21A4E3768BB42BAB28CBF9A1ADA
:1007C000D21A92B211440529C4BF05603360036890
:1007D00063803368A38003B0F0BDB32A9CBFB4220A
:1007E000ADF80620BBE7BDF80630A3F5B473B9E752
:1007F0000023C3E7C2F56D62083292B20E2A016887
:10080000C8D800252A46891A89B2D3E7A803002050
:1008100044560020A4030020A0030020A6030020CB
:100820009C03002037B568460D461446FFF77AFF53
:10083000BDF8000030B1BDF802302B60BDF80430C7
:100840002360012003B030BD032821D8DFE800F089
:10085000020B12190F4B1A68B2FA82F252090421E4
:100860000D4805F03BBB0B4B5A68B2FA82F25209B5
:100870000821F5E7074B9A68B2FA82F25209102173
:10088000EEE7044BDA68B2FA82F252092021E7E778
:10089000704700BFAC03002000100240032821D89D
:1008A000DFE800F0020B12190F4B1A68003A18BF6C
:1008B000012204210D4805F011BB0B4B5A68003A88
:1008C00018BF01220821F5E7074B9A68003A18BFC4
:1008D00001221021EEE7044BDA68003A18BF01222A
:1008E0002021E7E7704700BFAC0300200010024062
:1008F00003280DD8DFE800F00206080A04210548A5
:1009000005F0F1BA0821FAE71021F8E72021F6E70F
:10091000704700BF0010024008B5032811D8DFE877
:1009200000F0020A0C0E0421074805F0D1FA431E1C
:100930005842584108BD0821F6E71021F4E720216C
:10094000F2E70020F3E700BF0010024070B5084D49
:1009500000240126E0B2FFF7DFFF18B12B68012B5E
:1009600018BF2E600134052C05F10405F2D170BDCD
:10097000AC030020012380F8781080F879307047AC
:100980007047002070470000034B4164003918BFD6
:1009900001211970704700BF4F6801207047002087
:1009A0007047836B0BB10846184770474FF6FF70CE
:1009B0007047406803689B691847704770477047E5
:1009C0007047704710B5044600F04AFD236803499C
:1009D000D3F890302046BDE810401847000000D002
:1009E00008B503680446D3F8843098472368204646
:1009F000DB6F984700F0ECF8236820465B6F984760
:100A0000292001F0E3FA00F0E3F8236820465B6F49
:100A10009847F8E710B504460AF0C8FE2368204658
:100A2000D3F8BC30BDE81040184700F0FDBC00F022
:100A300001BD00F033BD00F0D3BC00F043BD00F0B9
:100A40004BBD00F0D7BC0AF0DFB810B584210446D6
:100A500024F002FB204610BD10B590F8341090F839
:100A600078400C4B8C421A7809D03AB90A4A0B49A3
:100A70001488088810800C8001221A7010BD002A8A
:100A8000FCD0054A05491488088810800C80002293
:100A9000F3E700BF48680120446801204668012050
:100AA00070B50D46194635B9094B0A4A0A4840F255
:100AB000FF2125F04FFAC0E90F52084B003A18BF4A
:100AC00001221A700368BDE87040D3F890301847CF
:100AD000BC730208F4730208427402084E680120D5
:100AE00008B5094B1B888B4203D8084B1B889342DF
:100AF00005D9074B074A0848A32125F02BFA074BD5
:100B00001980074B1A8008BD4468012046680120FF
:100B100087740208EA740208427402084A680120D5
:100B20004C680120034690F87A0018B158680368B1
:100B30001B68184770470000012108B500220846CD
:100B400007F02AFD0A4B186028B90A4B0A4A2821E7
:100B50000A4825F0FFF900220421012007F0C4FD16
:100B6000074B186018B9074B034A2C21F0E708BD62
:100B7000C00300202D75020876750208A5750208CD
:100B8000BC030020EB750208024B4FF0FF311868E0
:100B900007F04CBDC0030020014B186807F072BD80
:100BA000C0030020024B0021186807F03FBD00BFC2
:100BB000C0030020FFF7F0BF03480449006800238A
:100BC0001A4607F0CCBD00BFBC0300200400002083
:100BD00013B5084C00231A4601A9206807F0F0FD60
:100BE00020684FF0FF33002201A907F0E9FD02B0B1
:100BF00010BD00BFBC03002003685B6C18470120D8
:100C0000704703689B6A1847FEE740F2EF30704771
:100C1000054B0360054B4FF08062C3F88820BFF39B
:100C20004F8FBFF36F8F7047A883020800E100E089
:100C300010B504464FF45A61FFF7EAFF204624F04E
:100C40000BFA204610BD000082B0002301930E4B2A
:100C50001A6B42F400021A631A6B02F4000201924A
:100C6000019A1A6942F400021A611A6922F4000218
:100C70001A61064B064A1A61064A5A61064B4FF042
:100C800080629A6002B07047003802402858002005
:100C9000E90E0008090C000800E100E008B50A2888
:100CA00009D8DFE800F006100E0808080810101038
:100CB0001000022008BD054B054A0648902125F08A
:100CC00049F90020F6E70120F4E700BF2D7602087D
:100CD000487602089376020838B50C46887FFFF7FD
:100CE000DDFFA58AE28A164B2169586342EA054274
:100CF0005A64628BD963521B1A642568082D0ED181
:100D00009A611A615862207F0E4A42EA0062DA61F3
:100D1000E2681A620C4A5961D9601A6038BD002233
:100D2000D8611A61E1680A0A480902F4784200F4BD
:100D3000FC600243C1F3C4010A439A63034AECE72F
:100D400000B002400900010001230200012303005A
:100D500008B50B280BD8DFE800F00612100A0A0AC3
:100D60000A0808080808022008BD0520FCE7054B12
:100D7000054A06486F2125F0EDF80020F4E7012030
:100D8000F2E700BF2D760208D776020893760208B4
:100D90002DE9F04191F81D800C464046FFF7D8FF41
:100DA000A77F05463846FFF7D3FF06463846FFF7CC
:100DB00075FFA18A628B444B521A1A649A61228B86
:100DC000521A1A61E28A586342EA01425A6421695E
:100DD0006268D963DA602068802828D0227F0FD823
:100DE000202867D0402865D004281AD0364B45EA21
:100DF000026545F40035B845DD6161D0334A44E011
:100E0000B0F5807F04D0B0F5007FEFD1304800E02E
:100E1000304840EA0262DA61E2681A625E62596151
:100E200032E045EA026242F40032DA61F6E7A06895
:100E3000021DDA62227F45EA026545F40035DD6174
:100E40005E625961017841B1012921D0224B234AC8
:100E500023484FF48D7125F07DF8DA69418822F43A
:100E60007F42013922F0100242EA0122DA610121B7
:100E7000154BDA6942F02002DA61DA699206FCD495
:100E800010229A600029B9D0164A1A60BDE8F08194
:100E9000B2F1FF01DA69408822F47F4200F1FF30AD
:100EA00022F0100242EA002242F0100218BF012193
:100EB000DA61DDE745EA0262034B42F40032B4E74F
:100EC00042F20132E1E700BF00B00240012301001D
:100ED000090002000A000200217702083B7702089D
:100EE0009376020801230200024B1B6858680368CE
:100EF0005B6918475068012070B5044625460A4BC7
:100F00000C30002660602672667245F8203B602235
:100F100029460AF0A1FD04F55A63EE6024359D428E
:100F2000FBD1204670BD00BFA8830208034B1A689E
:100F3000D207FCD423229A60704700BF00B0024061
:100F40007047000030B50F4C2568ED07FCD4232511
:100F50000904A56041F001010225FF2B656361646E
:100F6000E0630AD00849656241EA0363E361074B25
:100F700022626061E060236030BDE561039BA36392
:100F8000034BF8E700B00240090001000100020035
:100F90000100030030B50E4C2568ED07FCD4232575
:100FA0001204A56042F001020225FF2B6563626412
:100FB000E063E16008D01B0643F00213E361054BD8
:100FC00065626061236030BD034BE3610123F9E793
:100FD00000B0024001000200020002FF30B50B4CDD
:100FE0002568ED07FCD4232512041B06A56043F4F5
:100FF0000033022542F0010265636264E063E16050
:10100000E361034B65626061236030BD00B0024064
:1010100001000200012070474020704700EB811062
:101020000830704700EB811008307047012070478E
:1010300044F20410704744F2041303FB010008302B
:10104000704744F2041303FB01000830704701208D
:1010500070471020704700EB01100830704700EB1C
:10106000011008307047084601F0F4BE10B5034B7C
:101070000360044609F01FFB204610BD608402088F
:1010800010B50446FFF7F2FF2046482123F0E4FFA5
:10109000204610BD10B5034B0360044609F00BFB5E
:1010A000204610BD2C84020810B50446FFF7F2FF5D
:1010B000204644F20C1123F0CFFF204610BD000063
:1010C00010B5034B0360044609F0F5FA204610BD45
:1010D000F883020810B50446FFF7F2FF20461821F6
:1010E00023F0BAFF204610BD10B5094B036004463B
:1010F00000F582403830FFF7B9FF04F12C00FFF70C
:10110000C9FF04F11400FFF7DBFF204610BD00BF4C
:101110009484020808B50248FFF7E6FF08BD00BF47
:101120009C12002010B50446FFF7DEFF204644F273
:10113000E02123F091FF204610BD00002DE9F3418E
:1011400001F002FB054601F003FB002401462346A3
:1011500028462246009414F0CDFE274B274A1A60F9
:10116000204603F025F9264D264B274A27489A604A
:1011700014F028FE2B68BFF35B8FDB0736D42846BC
:1011800023F06CFF90B3224C224F234B236007F1D6
:101190004C0604F1140004F12C086060C4F80880C7
:1011A000E760266109F088FA1C4B6361404609F04C
:1011B00083FA1B4BE362384609F07EFA04F580435C
:1011C000184AC3F8382104F5834003F075F9224624
:1011D00004F58341304603F065F9304601F03AFEEC
:1011E000114824F0D5FE284623F044FF0F4802B0F2
:1011F000BDE8F041FFF7E6BBB468012048040020D9
:1012000098120020680400204C04002008000020F0
:101210009C120020D453002094840208F883020812
:101220002C8402086084020815110008C403002001
:10123000704700000148FFF7D3BB00BFC403002084
:1012400070B5264E264C274D274B23603046FFF7BE
:1012500053FE284619F054FF244812F0E9F9244BB4
:101260002448DC6000224FF48071C3E91212224945
:101270001A86C3E91A12214983F85820C3E91E01CE
:101280001F49C3F880101F491F480B60F021C3E9B4
:101290000422C3E90622C3E90822C3E90A22C3E9FA
:1012A0000E22C3E91022C3E91422C3E917225A66A9
:1012B00083F870205A67C3E90165018013480180F3
:1012C00013484FF4A07101801248018012490A703E
:1012D000012283F83420114A1A6070BDF404002002
:1012E0009412002068040020AC7302084C04002013
:1012F000C4030020000001010100000100045000AF
:101300001A00140050680120446801204A68012036
:10131000466801204C68012048680120BC82020810
:101320000148FFF775BC00BFF4040020002070479F
:1013300081807047C180704701817047418170474B
:101340007047704770477047704710B4C48803688F
:10135000121B84885B6D091B12B25DF8044B09B245
:1013600018474FF6FF7383814FF0FF330362136812
:10137000C36110607047002070478B888380012014
:101380007047704780F82610704790F82600704725
:1013900010B50022B1F90840B1F90A10028042806C
:1013A0008480C18010BD0022028042808280C28081
:1013B00070470177704780ED080A704780F8241065
:1013C000704780F8251070470120704798307047AB
:1013D0008C3070478430704770477047704700000A
:1013E000034B902283F85A2383F85823704700BF99
:1013F00000E100E0094A0A49D3680A48C3F30A0336
:10140000013B9BB20B801169C1F30A0101390180D4
:101410001364536B43F0010353637047006801404A
:101420007E5500207C550020014BD3F8AC0070475E
:1014300000680140024B0122C3F8AC105A627047A9
:101440000068014010B52C21044623F005FE20461B
:1014500010BD10B5BC21044623F0FEFD204610BD92
:1014600070B5044609F025FC23689D6E10F050FE0F
:1014700001462046A8472368054AD3F88C502046E9
:10148000AC460023BDE87040A2F51631604700BFAE
:1014900000B004D009F0F4BB09F0FEBB09F0BABB00
:1014A00009F029BD90F8252012B103685B6918473F
:1014B000704790F825201AB190F8242002B11860E6
:1014C00070470000034B4FF080629A604FF08072CB
:1014D0009A60704700E100E0084B4FF08062C3F86B
:1014E0008820BFF34F8FBFF36F8F4FF08072C3F828
:1014F0008820BFF34F8FBFF36F8F704700E100E08C
:1015000070B50023124E8380124B0360336893F84A
:10151000582005460AB1D86C00B998680368DB6AA0
:1015200098473368B0FA80F4D86C640930B1036826
:10153000DB6A9847002808BF44F001042CB9064B29
:10154000064A07482C2124F005FD284670BD00BF3F
:1015500050680120A884020879770208D77702082A
:101560001078020870B5254E3568BFF35B8F15F013
:10157000010540D1304623F071FD00283BD0204CBE
:10158000204B256104F13400C4E90035C4E902555B
:10159000E584A562A58512F030FB04F158000CF03B
:1015A000E3FB194BA3652046184B40F8843BFFF73B
:1015B000A7FF174BC4F884302433C4F88C304FF4A1
:1015C000C803C4E928350023C4F8AC30C4F8B030EF
:1015D000C4F8B430C4F8B8300E480F4BC4F890507B
:1015E000C4F89C50C4F8A850C4F8983024F0D0FC3B
:1015F000304623F03FFD024870BD00BF80550020FB
:10160000845500200C960208C88402084085020810
:10161000C0950208DD130008A095020838B5184CE3
:1016200023685BB3174B184A1B6C11888B4216D189
:10163000164B198805F05AFA236893F86A2000259A
:10164000013283F86A2083F87C50FFF7B5FA2068EE
:101650000AF0ACF82846BDE83840FFF7F5B805F0C9
:1016600045FA2468236820461B6A9847012384F8BA
:101670007C300020BDE83840FFF710B938BD00BF0E
:1016800050680120006801407E5500207C550020F4
:1016900007B5064BADF806001B68054801220DF1A1
:1016A000060105F0C3FF03B05DF804FB0C00002049
:1016B000D4560020F8B50668104CB4FBF2F21F4671
:1016C0005308013AF2620546C2600C4669B9736379
:1016D0002146284606F096FD384606F051FF214681
:1016E0002846BDE8F84006F0CDBD042901D1B3631A
:1016F000EEE708290CBFF3633364E9E740420F00CB
:10170000F8B50668104CB4FBF2F21F469308013A94
:10171000F2620546C2600C4669B9736321462846E9
:1017200006F070FD384606F02BFF21462846BDE83E
:10173000F84006F0A7BD042901D1B363EEE70829FC
:101740000CBFF3633364E9E740420F002DE9F74F24
:1017500006460F46019314464FF000084FF0030A67
:101760004FF0050B019B984502D103B0BDE8F08F07
:10177000D4E90025002AA36895FBFAF593FBFBF951
:101780004FEA450505DDABB292B239463046FFF768
:1017900091FF05EB090006F0F3FE3946304606F0EE
:1017A00071FD08F101080C34DCE700002DE9F04779
:1017B000114DDFF8488006460F4605F10C094FF041
:1017C000030A58F8042B55F8044B94FBFAF4640010
:1017D000A3B292B239463046FFF792FF002CB8BF51
:1017E0000334A01006F0CCFE3946304606F04AFD20
:1017F0004D45E6D1BDE8F087FC8502080886020861
:1018000038B540F64D2204460D466423FFF752FFDB
:1018100029462046BDE8384006F034BD73B5334D47
:1018200000260421284604F053FB01280AD0304842
:101830004C238DF8073000680A2300220DF10701C0
:1018400006F08DFF0821284604F042FB01280AD04B
:10185000274852238DF8073000680A2300220DF133
:10186000070106F07CFF23484FF4804104F030FB71
:1018700001280AD01E4858238DF8073000680A2333
:1018800000220DF1070106F06AFF1B4C206806F0EC
:10189000C7FF8DF80760C0B218B90A2006F070FEC5
:1018A000BFE74FF0FF33206800220DF1070106F07B
:1018B00087FF9DF807304F2B0AD1104A104812239A
:1018C0000421FFF743FF206806F0AAFFC0B2E3E758
:1018D000452B04D10A480421FFF792FFF3E74C2B74
:1018E000F1D107480421FFF761FFECE7001802403F
:1018F0004C56002000000240485600201486020882
:101900007058002030B595B0102200210AA824F0AC
:101910005EFD1422002103A824F059FD00241E4B73
:1019200001941A6C42F080521A641B6C03F08053CD
:101930000193019B194B02941A6842F440421A60C9
:101940001B6803F4404302930122029B4FF480334F
:10195000CDE9082302254FF480030821CDE90E5379
:101960004FF4B473CDE9101308A804231393129510
:1019700005F014F905F0D8F80F23CDE903354FF43D
:10198000A0504FF48053CDE90603052103A8059428
:1019900005F0E0FA15B030BD00380240007000409C
:1019A0002DE98048A5B004F013F8FFF7ABFF14222F
:1019B000002117A824F00BFD0024C94B01941A6BD9
:1019C000C848C94D42F010021A631A6B02F01002A7
:1019D0000192019A02941A6B42F020021A631A6B68
:1019E00002F020020292029A03941A6B42F08002E3
:1019F0001A631A6B02F080020392039A04941A6B22
:101A000042F004021A631A6B02F004020492049A70
:101A100005941A6B42F001021A631A6B02F001027C
:101A20000592059A06941A6B42F002021A631A6B29
:101A300002F002020692069A07941A6B42F04002E4
:101A40001A631A6B02F040020792079A08941A6B05
:101A500042F008021A631B6B03F008032246089346
:101A60003C21089B04F03AFAA0480122022104F02C
:101A700035FA22469D48042104F030FA22469C485B
:101A8000202104F02BFA22469A484FF4405104F0EA
:101A900025FA01263C23CDE91736924819940323F1
:101AA00017A902271A9304F02FF9904817A9CDE936
:101AB0001776CDE9194404F027F904238B4817A9B8
:101AC000CDE91736CDE9194704F01EF920238848DF
:101AD00017A9CDE91736CDE9194404F015F94FF4EB
:101AE0004053844817A9CDE91736CDE9194704F0CA
:101AF0000BF90C238048199617A9CDE917344FF438
:101B0000804804F001F917A979481996CDE917849E
:101B100004F0FAF879487A4B036003F0EBFFDFF842
:101B200000C2784B2C622846C5E900C3C5E904848D
:101B3000C5E90244C5E9064404F0DEFB102128464D
:101B400004F022FE2146284604F03DFE6E4DDFF8EB
:101B5000D4E1AC624FF48273C5E900E34FF400783E
:101B60001823C5E9068328460A23C5E90244C5E9C6
:101B70000444C5E90844EB6205F0FCFC8F232246CF
:101B800039465A488DF840308DF85C4004F0A6F98B
:101B900032464FF47A7310A9284605F047FD4FF4FA
:101BA0007A73324617A9284605F0ECFE32463946CC
:101BB0004E48564D04F092F99DF85C30D32B04BF8B
:101BC000534B1E70534B0126C5E9003640221023AB
:101BD0000024C5E904324FF4C072C5E906244FF46D
:101BE000006202274FF004084FF0030AC5E90824F9
:101BF0004FF4005B072217A928464FF00809C5E9F2
:101C00000248CDE91772CDE91982CDE91BA7C5F8C5
:101C100028B01D9705F092FB4FF6FF7210A92846D9
:101C2000CDE9119609941096139405F0A7FB304660
:101C300003F0FAFE4FF6FF7210A92846CDE910799D
:101C4000CDE9126405F09AFB4FF6FF7210A9284601
:101C5000CDE910A9CDE9128405F090FB4FF40C7288
:101C60000992099A139210A94FF6FF722846CDE9FE
:101C70001089129605F082FB40F26A51284605F061
:101C80009BFB3422214617A824F0A1FB224D234AB6
:101C90002C61C5E900240922C5E905261D2240F270
:101CA0000D13C5E9072A40F24312C5E9093240F293
:101CB000171140F247122846C5E90B12C5E9024444
:101CC000AC8685F8364004F019FEFF20F0214FF471
:101CD000A072CDE91C044FF4806A052024E000BF07
:101CE0000038024000100240D45700200008024093
:101CF00000000240000C024000180240685800201A
:101D000000300240A0860100D45600205856002022
:101D100044560020400100A02C57002000680140DC
:101D2000005C004000500140CDE91814CDE91A27AD
:101D3000CDE91EA0CDE92041229217A922462846CE
:101D40001794544DADF88C408DF88E4004F0A1FEF0
:101D5000514A2A60126890472A68504DD2689047CD
:101D60004F4A2846C5E90024C5E90274C5E90A4777
:101D7000C5E90C4403F0CEFE3146284603F080FF4F
:101D8000484D494AAC60C5E9002428464FF6FF7229
:101D9000EA60AC61CDE9174406F044F817A928467B
:101DA000CDE9174406F070FA10231A4621460CA814
:101DB00024F00DFB1C22214610A8CDE90A4424F092
:101DC00006FB2022214617A824F001FB374D384896
:101DD000AC604523C5E9000340F2E733C5E90334AD
:101DE00028468023AB616C6106F01CF84FF48053E9
:101DF0000CA928460C9306F0FFF8284606F03EF89A
:101E00000AA92846CDE90A4406F03EFA6023424674
:101E100010A92846CDE91034CDE91244CDE9144487
:101E2000169406F087F817A92846CDE91744CDE99E
:101E30001944CDE91B4B1E9406F064FA284600F0C5
:101E400013FBFEF735FCFEF732FC4146284606F050
:101E5000D9F906F025FB174A3146484606F044FCFE
:101E6000154B164A18603146504606F03DFC144B9F
:101E7000144A18602146144806F03EFB134B144ADE
:101E800018602146134806F037FB134B186006F024
:101E900019FBFEE7405600201400002028580020BF
:101EA00000B002408C560020001400407058002002
:101EB000000001409C8502084C56002084850208E1
:101EC00048560020D88502081D18000854560020E6
:101ED000B4850208BF0600085056002070477047BE
:101EE0007FB5094B8DF817201B6802930DF117027F
:101EF0000123009201930A460146044804F0A4FA23
:101F000007B05DF804FB00BF10000020D45700208C
:101F10007FB500238DF81730084B1B6802930A46E3
:101F200001230DF11701009101930146044804F0CB
:101F30001BFB9DF8170007B05DF804FB10000020A4
:101F4000D45700201FB5084C24680092CDE9013415
:101F50000A4601230146054804F006FB003818BF75
:101F6000012004B010BD00BF10000020D457002095
:101F700003F05ABD10B5064C00222046042103F0A0
:101F8000ADFF20460122BDE81040042103F0A6BFAA
:101F90000008024038B50B4D044601220A484FF4B0
:101FA000005103F09BFF00220421284603F096FF16
:101FB0002046FFF76DFB28460122BDE8384004218A
:101FC00003F08CBF00080240000C024038B50B4DF6
:101FD000044600220A484FF4005103F07FFF00221C
:101FE0000421284603F07AFF2046FFF751FB2846DC
:101FF0000122BDE83840042103F070BF0008024010
:10200000000C0240F7B5144E144F05460C463046FE
:102010000022042103F062FF00224FF400513846F1
:1020200003F05CFF2846FFF733FB0D4B0D481B68A0
:10203000224601A905F0A6FC384601224FF40051C2
:10204000019C03F04BFF30460122042103F046FFC0
:10205000204603B0F0BD00BF00080240000C024063
:102060000C000020D456002003F0DEBC0268034BB5
:102070009A4201D103F0C6BC704700BF0010004077
:102080007047000082B00E4B00220092596C41F460
:1020900080415964596C01F480410091009901928A
:1020A000196C41F0805119641B6C03F0805301934B
:1020B000019B0F216FF0010002B003F0DBBC00BFF9
:1020C000003802400268094B9A4282B00BD10023CB
:1020D0000193074B1A6B42F480521A631B6B03F493
:1020E00080530193019B02B0704700BF0030024053
:1020F0000038024007B50F4B02689A4216D1002201
:10210000A3F5F0430192196B41F4000119631B6BB5
:1021100003F40003019305215A20019B03F0AAFC5C
:102120005A2003B05DF804EB03F0D6BC03B05DF8B1
:1021300004FB00BF00B002402DE9F043044689B023
:102140001422002103A824F042F92268244B9A4269
:1021500043D1244C244800250095236B43F004030D
:102160002363236B03F004030093009B0195236B0F
:1021700043F001032363236B03F001030193019BED
:102180004FF012094FF400734FF0010803270426A3
:1021900003A9CDE90339CDE90587079603F0B4FD1E
:1021A0004FF480731148079603A9CDE90339CDE9AF
:1021B000058703F0A9FD0295236C43F40003236413
:1021C000236C03F400030293029B236A43F400038D
:1021D0002362236A23F40003236209B0BDE8F0837D
:1021E000005C00400038024000080240000002404D
:1021F000F0B599B004461422002107A824F0E7F8AE
:1022000030220DEB0200002124F0E1F822685E4B41
:102210009A4240F0B78008230C93C0231093042304
:1022200012930CA84FF40033159304F05BFF08B130
:10223000FFF726FF554B5648002400945A6C42F095
:1022400080625A645A6C02F080620092009A019493
:102250001A6B42F020021A631A6B02F020020192FC
:10226000019A02941A6B42F001021A631A6B02F08F
:1022700001020292029A03941A6B42F002021A635C
:102280001A6B02F002020392039A04941A6B42F052
:1022900040021A631A6B02F040020492049A0594F9
:1022A0001A6B42F004021A631A6B02F004020592E0
:1022B000059A06941A6B42F008021A631B6B03F02E
:1022C0000803069302250E26069B0B964FF48063A7
:1022D00007A9CDE90735CDE9094503F015FD41F61C
:1022E00058032C480B9607A9CDE907350927CDE9F6
:1022F000094503F009FD032327480B9707A9CDE9FA
:102300000735CDE9094503F0FFFC4FF4706322481F
:102310000B9607A9CDE90735CDE9094503F0F4FC93
:102320004FF40C631D480B9607A9CDE90735CDE99D
:10233000094503F0E9FCC02319480B9607A9CDE92C
:102340000735CDE9094503F0DFFC082315480B9656
:1023500007A9CDE90735CDE9094503F0D5FC4FF4D0
:10236000A0530E480B9707A9CDE90735CDE90945DC
:1023700003F0CAFC58202246052103F07BFB5820BD
:1023800003F0AAFB19B0F0BD00680140003802401C
:102390000014024000000240000402400018024005
:1023A00000080240000C024010B5044688B0142218
:1023B000002103A824F00BF82268144B9A4223D181
:1023C00003F56843002101915A6C114842F48012D0
:1023D0005A645A6C02F480120192019A02911A6BAB
:1023E00042F020021A631B6B03F020030293029B4E
:1023F0004FF4607202230321CDE903230523CDE9C5
:10240000061303A903F080FC08B010BD0050014082
:10241000001402400368114A934282B00DD1002398
:1024200000930F4B5A6C42F001025A645B6C03F04C
:1024300001030093009B02B070470A4A9342FAD10D
:1024400000230193064B1A6C42F020021A641B6CA5
:1024500003F020030193019BEDE700BF0000014062
:10246000003802400014004010B5044686B0142223
:10247000002101A823F0ABFF22680E4B9A4216D12F
:10248000002300930C4B0D481A6B42F001021A63B3
:102490001B6B03F001030093009B4FF400720223B7
:1024A000CDE9012301A90123059303F02DFC06B01A
:1024B00010BD00BF00000140003802400000024093
:1024C0002DE9F04186B0002303932B4B1C68002CB0
:1024D0004FD14FF00108C3F80080284B00949A6B4D
:1024E000274842EA08029A639B6B03EA08030093B9
:1024F000022703260C25009B01A94FF63F03CDE9D7
:102500000137CDE9046503F0FFFB1E48059501A9DD
:10251000CDE90187CDE9034603F0F6FB48F233131A
:102520001948059501A9CDE90137CDE9034603F026
:10253000EBFB4FF683731548059501A9CDE90137EB
:10254000CDE9034603F0E0FB4CF203731048059518
:1025500001A9CDE90137CDE9034603F0D5FB60239E
:102560000C48059501A9CDE90137CDE9034603F0F3
:10257000CBFB06B0BDE8F081B8580020003802401F
:1025800000140240000802400018024000100240FF
:10259000000C02400004024070B588B00023029392
:1025A000204B1A6C42F010021A641B6C03F01003EB
:1025B0000293054601A903A8029B04F075FD069B42
:1025C0004BBB04F061FD184E184B336040F2E7330B
:1025D000F360174BB0FBF3F3013B7360304600230D
:1025E0003361B360B36105F01DFC044680B9304629
:1025F00005F0ECFA044658B9362003F06DFA0F2DB9
:102600000DD822462946362003F034FA094B1D60C6
:10261000204608B070BD04F037FD4000D3E7012428
:10262000F6E700BF00380240BC5800200010004010
:1026300040420F007C0000207047FEE7FEE7FEE707
:10264000FEE77047014805F000BB00BFBC58002002
:10265000014804F0C1B900BF2C570020014803F025
:1026600085BA00BF285800200120704708B523F024
:1026700051FF162303604FF0FF3008BD08B523F06B
:1026800049FF16230360FEE770B50D4614460E465B
:10269000731B9C4201DC204670BDAFF3008006F83E
:1026A000010BF5E770B50D4614460E46731B9C42B0
:1026B00001DC204670BD16F8010BAFF30080F5E792
:1026C0004FF0FF3070474FF400534B6000207047CD
:1026D00001207047002070470A4A116808B5034678
:1026E00009B9094911601068694603448B4206D94B
:1026F00023F010FF0C2303604FF0FF3008BD136080
:10270000FCE700BF0459002090750120704710B508
:102710000421044622F0A0FC204610BD08B5032980
:102720000FD8DFE801F002060A0A01F08DFE00680A
:1027300008BD01F089FE4068FAE701F085FE806877
:10274000F6E70020F4E70000004870470087020821
:102750000420704713B5002451B1036801948DF82B
:10276000034001AA9C680DF10303A04702B010BD0D
:102770000846FBE7C0897047008A7047C0887047E9
:1027800080887047807A00F07F007047807AC009A7
:1027900070470020704700009FED010A704700BF9E
:1027A00000000000704710B50821044622F054FCD8
:1027B000204610BD7047704700F598730868496857
:1027C00003C3704770477047416070477047704758
:1027D000064BC0F84C310023C0F8503100F5A2730D
:1027E000C0F84801C0F84031704700BFF53100081B
:1027F000012303727047704770477047704738B5C0
:10280000054640680368DB699847044604B938BD4B
:10281000A188AB89C91A236820461B6B09B2984767
:10282000A469F3E7704710B4C268416854100346C6
:1028300001EB6200D20748BF0A599B685DF8044B60
:1028400048BFD35818470346406830B19A681AB950
:10285000D86800F0010070470120704710B50C21C6
:10286000044622F0F9FB204610BD10B510210446A5
:1028700022F0F2FB204610BD10B51421044622F0D0
:10288000EBFB204610BD10B51021044622F0E4FBFE
:10289000204610BD10B54FF4AE71044622F0DCFBAB
:1028A000204610BD10B54021044622F0D5FB20463D
:1028B00010BD10B50FF02CFC0368BDE81040DB6BB9
:1028C000184710B50FF024FC0368BDE810405B6B9F
:1028D000184710B50FF01CFC0368BDE810405B6B97
:1028E0001847000013B50446807A637A0130C0B2FD
:1028F0009842A07205D9012323720023A37202B06B
:1029000010BDB4F90C20002111F020FFC30707D53A
:1029100000284FF6FF73C8BF012313FA80F000B2FE
:10292000144AE08112880023ADF8023083B2D21A33
:10293000ADF80020228A20829B1AADF804300E4B9D
:102940001B88ADF806300FF0E3FB036802AA1B6C8E
:1029500012E906009847A37A012BD0D1074B1B78C8
:10296000002BCCD00FF0D4FB02B0BDE810400FF02C
:10297000D5BB00BF44680120466801204E68012095
:1029800037B50546807A6B7A0130C0B29842A8729A
:1029900005D901232B720023AB7203B030BDB5F90A
:1029A0000C20B5F90E40002111F0D0FEC30707D569
:1029B00000284FF6FF73C8BF012313FA80F000B25E
:1029C000AB7AE881041B012BA4B206D1174B1B780C
:1029D0001BB10FF09DFB0FF0A1FB154A00231288DD
:1029E000ADF80230EB891A445B42ADF80430114B6C
:1029F000ADF800201B88ADF806300FF089FB0368A6
:102A000002AA12E906001B6C984768680368DB6934
:102A100098470546002DC0D0A9882B682144284638
:102A20001B6B09B29847AD69F4E700BF4E680120FF
:102A30004468012046680120054B1B7801462BB1F4
:102A4000406818B103680C315B6E1847704700BFCF
:102A50004F680120037A70B50546BBB9406803682A
:102A6000DB69984704463CB96868036805F10C01C6
:102A70001B6EBDE870401847A1886B8FC91A236888
:102A800020461B6B09B29847A469ECE770BD10B5EE
:102A90000446D0F8400158B10368DB68984738B164
:102AA000D4F8400103689B6898470023C4F840317C
:102AB00010BD70B5044690F8390094F838300130F4
:102AC000C0B2984284F8390005D90123237200234B
:102AD00084F8393070BDB4F93A20002111F036FE87
:102AE000C30706D500284FF6FF73C8BF012318445B
:102AF00000B2238AC01AA08760680368DB69984720
:102B000005462DB960680368BDE870405B691847E9
:102B1000A988A38F19442B6828461B6B09B29847D4
:102B2000AD69EEE72DE9F14FD0E9556A0746B06887
:102B300003681B6A9847B0F5E47F05D2444B454AC9
:102B4000A321454823F006FA706803681B6A98477A
:102B50000F2803D8414B3F4AA421F2E7F0680368ED
:102B60001B6A98470B2803D83D4B3A4AA521E8E752
:102B70000FF0CEFADFF8F09004300FF016FBD9F822
:102B8000000010B10368DB689847D9F8000010B165
:102B900003681B689847DFF8D480D8F8000010B1AC
:102BA00003685B699847D7F83C0110B103685B681C
:102BB0009847D8F8000010B103681B689847D7F809
:102BC0003C0110B103689B689847F06803680021D6
:102BD0005B6A98474FF0000B224BC0F804B00446E4
:102BE00080F808B00360B068036859465B6A98478C
:102BF000054602F003FC7068036859465B6A984713
:102C00002946064602F0D8FB331DC7F83C61C9F8D7
:102C10000040C8F80050CAF800302B68C6F808A079
:102C20002846DB68EE639847336830461B68984750
:102C30002146284611F084FD236820461B699847E9
:102C400023685B69204601B0BDE8F04F184700BF1C
:102C50009578020823790208F57902083C7A02087F
:102C6000DF7A0208D487020898680120946801205E
:102C70002DE9F14FD0E9556A0746B06803681B6A31
:102C8000984744F20313984205D8494B494AA32177
:102C9000494823F05FF9706803681B6A98470F285A
:102CA00003D8464B434AA421F2E7F06803681B6A45
:102CB00098470F2803D8424B3E4AA521E8E70FF07A
:102CC00027FADFF8089104300FF06FFAD9F8000006
:102CD00010B10368DB689847D9F8000010B10368A9
:102CE0001B689847DFF8E880D8F8000010B1036847
:102CF0005B699847D7F83C0110B103685B68984757
:102D0000D8F8000010B103681B689847D7F83C0159
:102D100010B103689B689847F068036800215B6AFC
:102D20009847284B03604FF4A0530381264B1B8820
:102D30004FF0000B80F80AB05B420446C0F804B0C4
:102D4000A0F80EB08381B068036859465B6A984763
:102D5000054601F04DFC7068036859465B6A984768
:102D60002946064601F0F4FB331DC7F83C61C9F85B
:102D70000040C8F80050CAF800302B68C6F808A018
:102D80002846DB68EE639847336830461B689847EF
:102D90002146284611F0D4FC236820461B69984739
:102DA00023685B69204601B0BDE8F04F184700BFBB
:102DB00095780208827B0208F57902083C7A0208BD
:102DC000DF7A0208408802084468012098680120E0
:102DD00094680120044B1B6893F858200AB1D86C02
:102DE00000B99868704700BF50680120F8B51746D1
:102DF00004460E460FF076FA124B1C60124B23600D
:102E0000124B0025C4E95135114BC4E953551868DC
:102E1000036801219B68C4E94F55C4E9557698477A
:102E2000284601F0C5FAFFF7D5FF1AF012F8FFF7B0
:102E3000D1FF1AF089F8FFF7CDFF1AF091F820467C
:102E4000F8BD00BFA46801208087020868870208D7
:102E500050680120064BC0F84C310023C0F85031B7
:102E600000F5A273C0F84801C0F84031704700BFB8
:102E7000F5310008064BC0F84C310023C0F8503142
:102E800000F5A273C0F84801C0F84031704700BF98
:102E900099300008064BC0F84C310023C0F850317F
:102EA00000F5A273C0F84801C0F84031704700BF78
:102EB000012F0008064BC0F84C310023C0F85031F8
:102EC00000F5A273C0F84801C0F84031704700BF58
:102ED000712C0008064BC0F84C310023C0F850316B
:102EE00000F5A273C0F84801C0F84031704700BF38
:102EF000252B000803685B6A184703685B6A18475C
:102F00002DE9F14FD0E9556A0746B06803681B6A9E
:102F10009847DB2805D8554B554AA321554823F03F
:102F200019F8706803681B6A98470F2803D8524B3A
:102F30004F4AA421F2E7F06803681B6A98473F28CC
:102F400003D84E4B4A4AA521E8E70FF0E1F8DFF835
:102F5000409104300FF029F9D9F8000010B103684E
:102F6000DB689847D9F8000010B103681B689847E0
:102F7000DFF82081D8F8000010B103685B6998473A
:102F8000D7F83C0110B103685B689847D8F8000097
:102F900010B103681B689847D7F83C0110B103686B
:102FA0009B689847F068036800215B6A984705466C
:102FB0000023334A4360037245F80C2B044628462D
:102FC0000BF0F2FA142222872E4A12780023A387EC
:102FD000002A33D1012323720021B068FFF78AFF52
:102FE000054601F09BFA70680021FFF786FF29462D
:102FF000064601F073FA331DC7F83C61C9F800407A
:10300000C8F80050CAF800302B68C6F808A0284657
:10301000DB68EE639847336830461B689847214663
:10302000284611F08DFB236820461B6998472368CA
:103030005B69204601B0BDE8F04F18471249134ABA
:10304000B1F900B0E168236128468B6BB2F900103A
:103050009847E3685946DB6B2846984728460BF0AB
:103060001EFA0A4A13885B426387B5E7957802081F
:10307000677C0208F57902083C7A0208DF7A0208C8
:103080001C8802084F68012046680120446801201E
:1030900098680120946801202DE9F14FD0E9556A24
:1030A0000746B06803681B6A9847DB2805D8484B79
:1030B000484AA321484822F04DFF706803681B6A04
:1030C00098470F2803D8454B424AA421F2E7F068FD
:1030D00003681B6A9847132803D8414B3D4AA52132
:1030E000E8E70FF015F8DFF8049104300FF05DF811
:1030F000D9F8000010B10368DB689847D9F80000E0
:1031000010B103681B689847DFF8E480D8F8000026
:1031100010B103685B699847D7F83C0110B10368A8
:103120005B689847D8F8000010B103681B6898479F
:10313000D7F83C0110B103689B689847F0680368B2
:1031400000215B6A9847274B03604FF4A05303812B
:10315000254B4FF0000B1B8880F80AB00446838192
:103160005946C0F804B0A0F80EB0A0F810B0B0688E
:10317000FFF7C0FE054601F0D1F959467068FFF728
:10318000BCFE2946064601F0A9F9331DC7F83C618B
:10319000C9F80040C8F80050CAF800302B68C6F8DB
:1031A00008A02846DB68EE639847336830461B6802
:1031B00098472146284611F0C3FA236820461B6928
:1031C000984723685B69204601B0BDE8F04F184777
:1031D000957802084C7D0208F57902083C7A0208CD
:1031E000DF7A0208F8870208446801209868012005
:1031F000946801202DE9F14FD0E9556A0746B0687F
:1032000003681B6A9847DB2805D8434B434AA32130
:10321000434822F09FFE706803681B6A98470F2896
:1032200003D8404B3D4AA421F2E7F06803681B6ACB
:1032300098470B2803D83C4B384AA521E8E70EF005
:1032400067FFDFF8EC9004300EF0AFFFD9F8000014
:1032500010B10368DB689847D9F8000010B1036823
:103260001B689847DFF8CC80D8F8000010B10368DD
:103270005B699847D7F83C0110B103685B689847D1
:10328000D8F8000010B103681B689847D7F83C01D4
:1032900010B103689B689847F068036800215B6A77
:1032A00098474FF0000B214B036004465946C0F885
:1032B00004B080F808B0B068FFF71CFE054601F0C6
:1032C0002DF959467068FFF718FE2946064601F0A9
:1032D00005F9331DC7F83C61C9F80040C8F8005033
:1032E000CAF800302B68C6F808A02846DB68EE63F1
:1032F0009847336830461B6898472146284611F0A6
:103300001FFA236820461B69984723685B6920469B
:1033100001B0BDE8F04F184795780208307E0208EA
:10332000F57902083C7A0208DF7A0208D48702089D
:103330009868012094680120406A7047806A70474D
:1033400070478A880B8810B5D20A4C88C1699BB235
:1033500051F8220043EA0443184410BD10B5044656
:10336000BAB1107B68B1537BD27A1B0203F4E063DD
:103370001A43236A03EB82031A888A4202D193F923
:10338000020010BD05D8013880B204330028F3D103
:10339000F7E70020F5E710B52C21044621F05CFE8C
:1033A000204610BD30B58BB00446BDF8605008957E
:1033B000BDF85C5007959DF8505006959DF84C500F
:1033C00005959DF8485004959DF8445003959DF847
:1033D000405002959DF83C500195BDF8385000953D
:1033E00010F03AFD064B2360159BE361169B2362A8
:1033F000199B63621A9BA36220460BB030BD00BFCD
:103400006488020800487047C48802080320704797
:1034100070477047704770477047704770477047F4
:1034200030B4C26844685510034604EB6200D2070A
:1034300048BF62599B6830BC48BFD3581847034601
:10344000406830B19A681AB9D86800F00100704736
:103450000120704710B51021044621F0FDFD2046E3
:1034600010BD10B5DC21044621F0F6FD204610BD4C
:103470009830884208B505D10EF04AFEBDE80840F4
:10348000FFF718BD08BD70B5036804461B6B1546F1
:1034900098472368294620465B6BBDE87040184773
:1034A0000022C0E90122C0E90322C0E90522C0E9E7
:1034B00007224FF480728284014A0260704700BF85
:1034C000989002082DE9F34704462646002510F09F
:1034D0008BFF484BE56346F8403B4FF0260A5246C7
:1034E0002946304622F073FF3046FFF7D9FF04F13A
:1034F0006C07414B23644FF0FF084FF6FF795246AB
:10350000294684F86680A5663846ADF8049022F016
:103510005EFF3846FFF7C4FF384BE366BDF8043062
:10352000A4F8923084F8948001A904F198083846F0
:103530000CF0DFF952462946404622F048FF40464B
:10354000FFF7AEFF2E4BC4F898302E4BA4F8C69070
:10355000C4E933342C4BA4F8C8904FF0010A2A4632
:10356000C4E9353584F8CA9029463046C4F8C050BD
:1035700084F8C45084F8BCA0FFF785FF3046F021E2
:10358000FDF7DAFE30464FF4A071FDF7D7FE04F1E7
:1035900004094FF07F43A3663146484607F09EF882
:1035A0002A4629463846FFF76EFF01A93846ADF88E
:1035B00004A00CF09EF93946484607F08FF84046C3
:1035C00073224621FFF75FFF032301AA69464046A5
:1035D000ADF80030ADF804300BF0ECFB04F1CC0397
:1035E0004846C4F8C030414607F078F8204602B09B
:1035F000BDE8F08718910208D49902081C9B0208C4
:103600003C9A02080091020871340008806A7047F1
:1036100030B5036885B06D460181D3F8843001462A
:1036200004462846984795E807003C3484E807009C
:1036300005B030BD30B5036885B06D464181D3F823
:103640008430014604462846984795E807003C34F4
:1036500084E8070005B030BD0022028042808280ED
:10366000C280704780F83610704770B50368044612
:103670001B6B154698472368294620465B6EBDE8BC
:103680007040184700207047806C70477047704743
:1036900070477047704703681B6B184730B4C268A7
:1036A00044685510034604EB6200D20748BF6259D4
:1036B0009B6830BC48BFD35818470346406830B1B8
:1036C0009A681AB9D86800F0010070470120704765
:1036D00090F82D3080F8603070470146383091F80E
:1036E0002C3013B136310CF004B93431FBE710B58E
:1036F0006421044621F0B0FC204610BD10B54C21D9
:10370000044621F0A9FC204610BD10B51021044646
:1037100021F0A2FC204610BD10B5034B0360044607
:103720000CF0FCFF204610BD9492020810B5064B29
:10373000036004460CF0F2FF204641F2C81121F06C
:103740008BFC204610BD00BF9492020808B50EF015
:10375000DFFCBDE80840FFF7BDBB08B5FDF7A2FEE2
:1037600008BD10B50446006B50B10368DB6898478C
:1037700030B1206B036821469B68BDE810401847B4
:1037800010BD0B7970B590F82C6004460D460BB94E
:1037900016B170BD002EFCD0B3FA83F35B0984F838
:1037A0002C3023682046D3F88C3098472368204675
:1037B0005B699847002EECD02B79012BE9D1236867
:1037C0002046D3F88830BDE870401847036870B5CC
:1037D0005E6B124B1B6804468DB22BB9104B114A1D
:1037E0006C21114822F0B6FB1049828D0988914264
:1037F00003D80F4B0B4A6D21F3E713F812200D4B42
:103800001B6853F8220003681B6B9847291A33463C
:10381000204609B2BDE87040184700BFA8680120E3
:10382000027F0208447F02087F7F0208AC68012003
:10383000C67F0208B068012000F52370884208B5F1
:1038400005D10EF065FCBDE80840FFF713BB08BDCD
:1038500000224FF0FF31C0E90021826070470B88E1
:103860002DE9F04183861388B0F90850C3860446D9
:103870001046904612F052FBB4F90A30074603EBAB
:10388000D3734046C3F34F0612F07CFB05EBD575AE
:10389000C5F34F0500EBD07007EBD777A6EB6002BE
:1038A000A5EB670104F1380012B209B2FFF7EBFD96
:1038B00023682046D3F88C30BDE8F041184770B536
:1038C00004461D46BDF91060FFF7DDFD236829465B
:1038D00020469B6B9847236831462046DB6BBDE84A
:1038E0007040184738B5262204460D46002122F0C4
:1038F0006EFD2046FFF7D4FD064B23602B88E38442
:10390000FF23204684F8283029460BF0F2FF20469A
:1039100038BD00BF1C9B02082DE9F04F044697B04C
:10392000A046002510F060FDE64BE56348F8403BFB
:1039300026222946404622F04AFD4046FFF7B0FDC8
:10394000E14B236404F16C09FF2314A94FF6FF76C1
:1039500004F1980784F86630A5664846ADF85060D3
:10396000FFF7C0FF38460AF0A7FBDFF880A304F595
:10397000847318460AF1240B0D93FDF7C1FD04F57D
:103980008E73C4F808A1C4F810B11846C4F81451D5
:10399000059309F0DBFC04F5B27318460C93FDF7B0
:1039A000AFFD04F5BC73C4F864A1C4F86CB118464B
:1039B000C4F87051069309F0C9FC04F5E073184689
:1039C0000B93FDF79DFD04F5EA73C4F8C0A1C4F89C
:1039D000C8B11846C4F8CC51079309F0B7FC04F5F8
:1039E000077318460A93FDF78BFD04F50C73C4F8B2
:1039F0001CA2C4F824B21846C4F82852089309F04F
:103A0000A5FC04F51E7318460993FDF779FD04F52E
:103A1000237304934FF47F43A4F8B83240F20113A8
:103A2000C4F878A2C4F880B24FF0FF3A04F5317BB5
:103A3000A4F8B032A54BC4F88C3214A95846C4E996
:103A4000A455C4E9A655C4E9A855C4E9AA55C4F8C3
:103A50008452C4F8B452C4F8BC52C4F8C0A2ADF841
:103A600050A0FFF73FFF5946049804F53C7B06F051
:103A700035FE26222946584622F0A9FC5846FFF773
:103A80000FFD934BC4F818334FF47F03C4F824336D
:103A9000904BC4F8F03204F54F732622294618469D
:103AA000A4F81C63C4E9CB5AC4E9CD55C4F820532B
:103AB000A4F82853039322F08AFC0398FFF7F0FC44
:103AC000854BC4F83C334FF07E53C4F86433C4F8DC
:103AD0006833824AA4F862630023C4F86C33C4F8E4
:103AE0007033C4F87433C4F87833C4F87C3304F505
:103AF0008053C3E96E247A4A4FF46161C3E97025AB
:103B000004F56A700CF000FE4FF4A0732A4640469C
:103B100000932946F023FFF7D2FE261D4FF07F4386
:103B2000A3664146304606F0D9FD2A462946484656
:103B3000FFF7A9FC012314A94846ADF850300BF05B
:103B4000D8FE4946304606F0C9FD0F230093EE2209
:103B5000F02329463846FFF7B2FE624BC4F8143111
:103B600044F2C3034FF4F078A4F818310D9BC4F865
:103B7000C0304246294638460AF0B4FB42464FF46C
:103B8000F05138460AF0B9FBD4F8D430434504D09C
:103B9000C4F8D48038460AF0AFFA384602214FF014
:103BA00018090AF0B5FB3946304606F097FD4B463A
:103BB000002249460598CDF80090FFF780FE4A4B59
:103BC000C4F870314FF4784300254FF4C0774FF4B8
:103BD0003458A4F874310C9B0599C4F85071C4E9A9
:103BE0005277C4F844313046C4F85C51C4F854519B
:103BF000C4F8588184F8415106F070FD4B462A46BE
:103C00000698CDF800903021FFF759FE6FF0FF03C2
:103C1000C4F8CC314FF6E073A4F8D0310B9B069971
:103C2000C4F8AC71C4E96977C4F8A0313046C4E97E
:103C30006C58C4F8B85184F89D5106F04FFD4B46BE
:103C40002A460798CDF800902946FFF738FE4FF036
:103C5000FF23C4F828324FF4FC6A0A9B0799C4F882
:103C60000872C4E98077C4F8FC313046C4E983584F
:103C7000C4F81452A4F82CA284F8F9514FF4A07996
:103C800006F02CFD0898CDF80090F0232A4629462E
:103C9000FFF715FE4FF470624FF40753C4E9972302
:103CA0004FF0FF23C4F88432099BC4F858320899B6
:103CB000C4F864723046C4E99A58C4F87052A4F843
:103CC00088A215E094920208D4990208DC910208B7
:103CD000588702084C910208B09A02087C920208A8
:103CE000393800081A1B47FF0000FFFFC095020883
:103CF00006F0F4FC0498ADF84C5014AA13A9ADF8E2
:103D00005050FFF7ACFD04F58D531833C4F8BC32A6
:103D100020234FF490720498C4F8C852D021009325
:103D2000FFF7CDFD0499304606F0D8FC4FF49472AD
:103D300029465846FFF7A7FB354BC4F82033D4F883
:103D4000F032A4F824530EAF3846D3F884305946E5
:103D5000984797E807000BF13C0383E807002D4BD9
:103D60001B6804F560772BB92B4B2C4A60212C483B
:103D700022F0F0F82B4B1B88022B03D82A4B274A42
:103D80006121F4E7294B0221186800F04DFB284A15
:103D900003461421384612F007F85846C4F8387321
:103DA0000AF08AFF234B149314A903235846ADF855
:103DB00054300AF0A1FF5946304606F08FFC0398B4
:103DC00002210BF0A7F90398CDF800902A46294666
:103DD000F023FFF774FD184BC4F86433174BC4F895
:103DE0006833174BC4F87833C4F870334FF0874307
:103DF000144AC4F87433002330460399C4F87C2372
:103E0000C4F86C3306F06AFC204617B0BDE8F08FAA
:103E100000FF4DFFA8680120027F0208048002080D
:103E20007F7F0208AC680120C67F0208B4680120C9
:103E30004F80020858870208CDCC4C3ECDCCCC3DFB
:103E40000000F0420000664370477047704730B48E
:103E5000C26844685510034604EB6200D20748BFAD
:103E600062599B6830BC48BFD35818470346406826
:103E700030B19A681AB9D86800F001007047012083
:103E8000704710B51021044621F0E6F8204610BD19
:103E900010B54FF4E471044621F0DEF8204610BD61
:103EA0006C30884208B505D10EF032F9BDE8084003
:103EB000FEF7F0BF08BD000010B526220446002121
:103EC00022F085FA2046FFF7EBFA0A4B23600A4BF3
:103ED000A3624FF6FF73A3854FF47F020023C4E96A
:103EE0000C3223874FF0FF32C4E91023E3632046EE
:103EF00010BD00BF44990208588702082DE9F04F11
:103F000004468BB02646002510F06EFA814BE5631F
:103F100046F8403B26222946304622F058FA3046E1
:103F2000FFF7BEFA7C4B2364FF2384F866304FF41E
:103F30007F43A4F8983040F20113A4F89030774BF7
:103F4000E36604F1A4074FF0FF3304F16C0BC4F8EF
:103F5000A03008A93846C4E91C55C4E91E55C4E977
:103F60002055C4E92255A566C4F89450C4F89C5065
:103F7000ADF82030FFF7B6FC3946584604F1D007BB
:103F800006F0ACFB3846FFF797FF04F58E79644BDB
:103F9000C4F8D030C4F81851484604F5B27AFFF797
:103FA0008BFF4FF6FF7308A95046ADF82030FFF79E
:103FB00099FC5C4BC4E96E345B4BC4E970354FF43B
:103FC000A0732A46304600932946F023FFF777FC7A
:103FD00004F104084FF07F43A3663146404606F0E3
:103FE0007DFB584608AA07A9ADF81C50ADF8205033
:103FF000FFF735FC04F5DC73C4F89C3020234FF444
:1040000090725846C4F8A850D0210093FFF757FC8F
:104010005946404606F062FBFE224D213846FFF726
:1040200032FA424BC4F80031D4F8D030A4F804512D
:1040300002AED3F8843039463046984796E80700F8
:1040400004F5867383E80700394B1B6804F5C87BC9
:104050002BB9384B384A6021384821F07BFF384B68
:104060001B88022B03D8374B334A6121F4E7364BC8
:104070000221186800F0D8F9344A03461421584642
:1040800011F092FEC4F818B138460AF015FEDFF8B8
:10409000C4B0CDF820B008A93846ADF824500AF0D5
:1040A0002BFE3946404606F019FBC9224846352109
:1040B000FFF7E9F9264BC4F84C3149463046A4F8DD
:1040C00050510AF071FB96E8070004F5AC7383E8E1
:1040D0000700012308A94846ADF82430CDF820B0E8
:1040E0000AF00AFE4946404606F0F8FA42225046D7
:1040F0003C21FFF7C8F9022308A95046ADF820304B
:104100000BF0F7FB4046514606F0E8FA20460BB0AC
:10411000BDE8F08FE8920208D4990208DC91020809
:104120004C910208D0920208A13E000800FF4DFF0A
:10413000A8680120027F0208048002087F7F02082D
:10414000AC680120C67F0208B46801204F800208D5
:10415000FAA700FF588702087047000030B5174DD6
:104160002C6814F001048FB0BFF35B8F22D1284676
:1041700020F074FFF0B13F230993114B0893114BCA
:1041800007930123CDE9054304930423CDE90243BA
:104190000F230D49009313221223CDE90B440B4842
:1041A0000A940194FFF7FEF8094821F0F1FE284631
:1041B00020F060FF05480FB030BD00BF0859002057
:1041C0007CAE0208B0AE020870AC02080C590020A8
:1041D000594100087047000030B5164D2C6814F0A6
:1041E00001048FB0BFF35B8F21D1284620F036FF4A
:1041F000E8B130230993104B0893104B1049114834
:104200000A94CDE9064301220423CDE903321423A5
:1042100000931122CDE90B44CDE901440594FFF749
:10422000C1F8094821F0B4FE284620F023FF0548D4
:104230000FB030BD38590020A8AE0208B4AE020855
:104240007CAD02083C590020D541000870470000B1
:1042500030B5164D2C6814F001048FB0BFF35B8F9E
:1042600020D1284620F0FAFEE0B13F230993104BFD
:104270000893104B104911480A940122CDE90643D6
:104280000423CDE9033228230093CDE90B44CDE983
:1042900001440594FFF786F8094821F079FE284685
:1042A00020F0E8FE05480FB030BD00BF685900207F
:1042B000ACAE0208B8AE02086CAE02086C59002021
:1042C0004D42000800207047002070470EB403B52F
:1042D00003AB002153F8042B01930EF0C9FF02B089
:1042E0005DF804EB03B070470CB407B504AB53F8AA
:1042F000042B01930EF0BCFF03B05DF804EB02B099
:1043000070470000436C10B5044673B3038F2BB99C
:10431000184B194AC521194821F01CFEC38E00EB29
:1043200043035B8C0BB310F096FF238F012B03D854
:10433000134B144ACB21EEE7E28E531C9BB2092BA0
:10434000194688BFA3F10A0104EB410140F63F1072
:10435000498C814209D10A2B04EB420228BF002379
:1043600004EB4303508C588451842046BDE8104030
:1043700010F074BE528002085B80020806810208B9
:10438000508102085E81020810F02FBE10B586B081
:1043900002AC84E806001A460AAB05930193099B18
:1043A00000932146089B0DF051FA06B010BD0000A5
:1043B00038B518BB124B13481C681349B4B12268B6
:1043C00022440260626822440A60A26814440F4BCF
:1043D00000221A8000F038F8054600F033F80C4B44
:1043E0001C600C4B1D600C4B188007E00B4B0360EE
:1043F0000B4B0B600B4B1C68002CE8D138BD00BF89
:10440000A45900209C59002098590020A059002050
:10441000A8680120B0680120AC680120CCAE020879
:10442000BCAE020824AF0208044B1B6853F82100FD
:10443000034B1B6803EB4000704700BF98590020F6
:104440009C5900200420704700487047A85900205C
:1044500010B5FFF7C1FE044C2060FFF7F9FE606065
:10446000FFF77CFEA06010BDA859002010B5002405
:1044700004600C6014601C6010BD704710B54FF4F0
:10448000AE71044620F0E8FD204610BD10B504468C
:10449000D0F8580100F013F82046BDE810400DF0A8
:1044A000E1BE000010B50446FEF7A0FC014B2360FE
:1044B000204610BD1C93020800220260704770471E
:1044C000704704387047704710B51021044620F03B
:1044D000C3FD204610BDA0F10400F5E70022826074
:1044E000024A026018324260C1607047709302084D
:1044F0007047000010B5034B03600446FEF78EFFC3
:10450000204610BD9893020810B50446FFF7F2FF4D
:104510002046DC2120F0A0FD204610BD10B5044649
:10452000FEF7D0FF014B2360204610BD9893020890
:10453000FEF775BF704704387047704710B51021FB
:10454000044620F089FD204610BDA0F10400F5E7E7
:1045500000228260024A026018324260C1607047E5
:10456000CC930208704700000A4B70B50446036004
:1045700043F6E40541F28416B54205D0635960194B
:104580001B689847483DF7E72046FFF7C5F82046E7
:1045900070BD00BFF493020810B50446FFF7E4FFB6
:1045A000204644F2041120F057FD204610BD10B5FE
:1045B000044600F580408C220021743004F58044CC
:1045C00021F005FF0023236710BD000010B5074C44
:1045D000236813B901F022FA2060206880EA403095
:1045E00080EA504080EA4010206010BDB45900209D
:1045F000F8B50546FFF790F9114B2B6005F5805390
:10460000002205F58E5405F56456C3F8C8210C3414
:104610002C3604F534772046483408F097FEBC4227
:10462000F9D1B442F5D105F540520023C2F8F43B6C
:10463000A2F8F83B05F580422846C2F80031F8BDE3
:10464000F493020870B51D460B680C461B6B0021E5
:10465000204616469847236800215B6B2046984702
:104660002368F0219B6B2046984723684FF4A07184
:10467000DB6B204698474FF4C073B5F59C7F6363AE
:104680004FF00003A8BFA5F5A8752364A3634FF4FA
:10469000345376016D01E363049BE6622563A362F4
:1046A00070BDF0B500299DF8187049DA0E31092A5D
:1046B00045D80A2606FB01F54419144443F65C3C30
:1046C00014F80CC0BCF1000F39D044F2740C14F88B
:1046D0000C40A4BB4FF434744C434FF0480C0CFB1B
:1046E0000244044404F58E540C34246BB4F5F35F97
:1046F00025DA7FB1059C154406FB034405F64A659F
:1047000004F64A6400EB850500EB84046D68636879
:104710009D4214D100F580452B6F00EB830404F516
:1047200040540133C4F8101CC4F8402E2B670A23F0
:1047300003FB0100024444F274030121D154F0BD93
:104740000D29C8BF0E39B2E74FF434732DE9F04F8D
:104750004B431646482202FB0633034403F58E53AF
:104760000C3385B01B6BB3F5F35F04460D4680F246
:10477000818004F5804AFFF71AFFDAF8703004EB05
:10478000830202F5405244F27401C2F8105CC2F890
:10479000406E0A2202FB0545AA190126334404F59E
:1047A0007058565408F10C08CAF870300027DAF82F
:1047B00070309F4203DB384605B0BDE8F08F58F8F3
:1047C00004BFD8F8305200956B1ECDE901635946FD
:1047D000029A5B462046FFF764FF6B1C03936A1C3A
:1047E0005B465946CDE900562046FFF75AFF1BF0BD
:1047F000010FCDE9005607F101070BF1FF310BF175
:1048000001095B462A461CD020460291FFF749FF6A
:1048100002995B466A1C2046CDE90056FFF741FF2E
:104820005B462A46CDE9005649462046FFF739FF48
:10483000CDE90056039A5B4649462046FFF731FF13
:10484000B5E720460391FFF72CFFDDE902215B4627
:104850002046CDE90056FFF724FF5B462A46CDE906
:10486000005649462046FFF71CFFCDE90056029A44
:104870005B46E1E700279EE72DE9F04F044604F58B
:104880008F5187B0002342F210704FF0FF351C317A
:104890004FF4347606FB03F28A58002AB8BF1F3261
:1048A000B0EB621FC8BF1D464FEA621703F1010358
:1048B000C8BF38460E2BEDD12046FFF778FE0A23FD
:1048C00003FB054315F0010F03F56D530CBF0A27D9
:1048D00009271B33002204F580464FF0010C13F822
:1048E000011F61B1316F83F818C504EB810000F539
:1048F00040500131C0F8105CC0F8402E31670132E1
:10490000BA42ECD104F570574FF0000A04F5804329
:104910000C3705935646059B1B6F534502DC07B0C9
:10492000BDE8F08F57F804BFD7F830526B1E0393E1
:10493000039A5B4659462046CDE90056FFF7B1FE83
:104940006B1C04935946CDE900565B466A1C204611
:10495000FFF7A7FE1BF001090AF1010A0BF1FF3175
:104960000BF1010820D05B462A462046CDE90056CF
:104970000391FFF796FE03995B466A1C2046CDE93A
:104980000056FFF78EFE5B462A46CDE900564146AB
:104990002046FFF786FECDE90056049A5B46414665
:1049A0002046FFF77EFEB6E75B462A462046CDE965
:1049B00000590491FFF775FEDDE903215B462046AF
:1049C000CDE90059FFF76DFE5B462A46CDE9005957
:1049D00041462046FFF765FECDE90059039A5B4644
:1049E000DDE7CB6A0A6B002BB8BF1F33002AB8BFC4
:1049F0001F325211501CB0F59C7FA8BF6FF4A770F6
:104A00004FEA6313A8BF10185B014001CB62086333
:104A1000704700002DE9F04F544D89B00446FEF771
:104A200039FE0023524A5348322121F057FC5149A4
:104A30003222284610F057FEC4F8385304F53C7073
:104A40000EF040FDA4EB840904F5E07304F56D5706
:104A500004F58E58A9F53449049304F507731B3700
:104A600008F10C08A9F140090025059315F0010F84
:104A70004FF0180101FB05F314BF0C26002603F1CB
:104A80000C0306F10C060CBF0A220922029301FB5B
:104A900002630393C346BA46FFF798FD0323B0FBB6
:104AA000F3F303EB4303C01A49F82A0000284ED160
:104AB00004F5B27300933246029B59462046FFF735
:104AC000C1FDDBF83030B3F5D07F46DA5946201D02
:104AD00005F004FE01230AF8013F039B18369E42AD
:104AE0000BF1480BD8D101350E2D07F10A0708F557
:104AF0003478BBD104F5405505F6EC3300221A603A
:104B000005F53F631C4A1A601C4BC4F86C331C4B00
:104B1000C4F86433FFF75AFD0323B0FBF3F303EB50
:104B20004303C01AC5F80C0CC8B904F5B273154894
:104B3000C4F858324F238DF81F3000220A230DF19C
:104B40001F01006803F00BFE09B0BDE8F08FDDE93E
:104B50000432012808BF1346ACE70023BBE7012855
:104B60000CBF04F5077304F5E073E0E7EE5900208D
:104B700030820208BC590020000080BF000087433B
:104B8000CDCCCC3D485600202DE9F04F00F54055E6
:104B90002DED0A8B95F8F93B87B00446002B00F009
:104BA0000B839FED949ADFED949AB3EE04CA05F659
:104BB000FC33D3ED00BAF5EEC0BAF1EE10FA15DD14
:104BC00005F6044393ED007ADFED8C7A77EEC77A31
:104BD000B2EE087A77EEC77A87EEAB8AB4EE4C8AEB
:104BE000F1EE10FAC8BFB0EE4C8A03E000F1EA80A3
:104BF000B0EE4C8A04F58F571837BB4622464FF06B
:104C0000000A1AF0010F02F56D5606F11C0614BFDA
:104C10004FF009084FF00A089FED79BAB044D94621
:104C200016F8013B05F60441D1ED01AA002B5FD037
:104C3000D9F80030D1ED008A0092002BB8BF1F33A5
:104C40005B1107EE903AD9F80430002BB8BF1F3340
:104C50005B110AEE103AB8EECAAAF8EEE77A3AEE1D
:104C6000CAAA78EEE78A6AEE0ACAE8EEA8CAB0EEE7
:104C70006C0A20F01BFAB4EEC90AF1EE10FA009AA1
:104C800040F2B58005F6FC33D3ED017AB0EE007A40
:104C900027EEA70AEBEE878AABEEAB0A77EEA77A90
:104CA0007CEECBCAE7EE8A8AF1EE007A20EE270A84
:104CB00020EE6C0AA8EEA80AB5EEC00AF1EE10FAD2
:104CC00016D420F0F3F9F1EE687A77EEC07A009A04
:104CD000F5EEC07AF1EE10FA7FDBB6EE000A20EEB8
:104CE000270AB4EEC80AF1EE10FAD8BFB0EE408A37
:104CF000464509F1480993D10AF1010ABAF10E0FAC
:104D000002F10A020BF5347B7FF47BAFB5EEC08A6B
:104D100005F6FC33D3ED017AF1EE10FA05F6044303
:104D2000D3ED008A48BF9FED348AEBEE888A04F504
:104D30006D5808F11B08E7EE88AAC3464FF0010939
:104D4000C3ED008A3CEE48CA05F60843C3ED00AA4D
:104D50003B4619F0010F14BF0A2109211E465A468D
:104D60004FF0000A12F8010F0090002850D10AF10C
:104D7000010A514506F14806F4D109F10109B9F1DA
:104D80000F0F0BF10A0B03F53473E2D1DFED1D7A3F
:104D9000F4EEE78AF1EE10FA07D9DFED1B7AF4EEB4
:104DA000E78AF1EE10FAC0F2E88105F6FC33F1EE85
:104DB0006BBAC3ED00BAB5EEC0CAF1EE10FA3FF718
:104DC000F6AEE2E105F60443D3ED007AB2EE087ADE
:104DD00077EEC77AF1EE677AFEE630EE680AB5EE56
:104DE000C00AF1EE10FA83DBF6EE007A77E7B0EE58
:104DF000690A76E73400C0410000000000007043FB
:104E0000B2FF0F4469004041F9FF634300401C4674
:104E1000306801910028B8BF1F30401107EE900A9A
:104E200070680028B8BF1F30CDE90223431100EE9F
:104E3000103AB8EEC00AF8EEE77A30EE6A0A77EE7A
:104E4000E87A20EE000AA7EEA70A20F02FF9B4EEC8
:104E5000C90AF1EE10FADDE90112039B87D84FF081
:104E6000FF361FED168A4FF0000AB1461AF0010F07
:104E700014BF09210A213B4642464FF0000B12F8AD
:104E8000010F50BB186801910028B8BF1F304011B6
:104E900007EE900A58680028B8BF1F30CDE90223FA
:104EA000431100EE103AB8EEC00AF8EEE77A30EEA1
:104EB0006A0A77EEE87A20EE000AA7EEA70A20F049
:104EC000F5F8DDE90112B4EEC08AF1EE10FA039BA9
:104ED000C2BFB0EE408A5E46D1460BF1010B8B4556
:104EE00003F14803CBD10AF1010ABAF10E0F08F120
:104EF0000A0807F53477B9D159EA060300F1B680FC
:104F00000A2303FB09F3E218324443F65C31012023
:104F10003344505403F64A63D5F80C2C032104EBB8
:104F20008303B2FBF1F101EB4101521A5A60002AEE
:104F300040F01C8104F5B2734FF43471482201FB38
:104F400009F102FB0611601841F2F41201F58E51CD
:104F500083500C31231D18462144029305F0BEFBFB
:104F6000324649462046FFF7EFFB022806467DDD24
:104F70006FF04603634304F56D5808F11C08019374
:104F8000A3F58513C2464FF0000B143B57464FF074
:104F90000009482297F8181559B1397849B102FB30
:104FA00007310298039305F0DAFB0021039B397067
:104FB000482209F10109B9F10A0F07F10107E9D106
:104FC0000BF5347B42F2607293450AF10A0ADDD197
:104FD0002046FFF751FC019BA3F585194FF0000B0C
:104FE000A9F1140947464FF0000A482297F81835EE
:104FF0005BB9397849B102FB07910298019305F03A
:10500000AEFB019B3B70013648220AF1010ABAF15E
:105010000A0F07F10107E9D10BF5347B42F2607307
:105020009B4508F10A08DDD104F580423221D2F80F
:105030000031CD483344C2F80031CC4A1360CC4A29
:1050400021F04CF9C849CB48322210F04CFB04F552
:105050003C7009F031FEC84845238DF817300068D0
:10506000534600220DF1170103F079FB05F60843C2
:10507000D3ED007A9FEDC17AF4EEC77AF1EE10FA23
:1050800003D9009B002B00F08A80002385F8F93BB0
:105090004FF470614FF40753C4E99713FFF796FA82
:1050A0000323B0FBF3F303EB4303C01AC5F80C0C66
:1050B00000286DD104F5B273C4F85832B04E306890
:1050C00003F0AEFB0023C0B28DF8163000287AD171
:1050D00004F5805AD5F8E82BDAF8C83195F8F81BB2
:1050E0009A1A082A00F2F38029B9012285F8F82BD0
:1050F000A44AC4F86423002B00F0068113F00705CE
:1051000040F00281A4EB840904F56D58A9F53449F7
:1051100004F58E5B08F11C08A9F144090BF10C0B96
:1051200000230BEB05074646009339462046FFF760
:1051300058FC3B6BB3F5D07F80F2D0803378002BE6
:1051400040F0CF80FFF742FA0323B0FBF3F303EB09
:105150004303C01A49F82600002800F0E280012825
:105160000CBF04F5077304F5E073DCE0012A0CBF03
:1051700004F5077304F5E073DEE6DFED807AF4EE04
:10518000E7AAF1EE10FA3FF616AE002300936DE7A2
:1051900001280CBF04F5077304F5E0738CE705F6EE
:1051A000044393ED007AFEEEED7ABEEEED7AC4EDA7
:1051B000987A84ED977A81E74FF470624FF4075341
:1051C000C0E997237AE7002330681A460DF11601EB
:1051D00003F0F6FA0028F6D19DF81620D5F8F43B36
:1051E0004C2A1CD1C3F586720132B42A08DD013382
:1051F000C5F8F43B04F58053D3F8C831C5F8E83B53
:10520000D5F8F43B3068C3F5877307EE903AF8EEB3
:10521000E77AC4EDDB7A03F003FBC0B256E7522A0B
:1052200007D1C3F587720132B2F5B47FE8DA013BEA
:10523000DEE7582AE4D195F8F92B002AE0D104F5ED
:105240008052D2F8C821002ADAD007EE903A9FEDBA
:105250004E7AF8EEE77A0122C7EE878A85F8F92BB5
:10526000DFED4A7A68EEA78AB0EE680A1FF03CFFCD
:10527000B0EE408AB0EE680A1FF07AFF05F6EC3314
:1052800093ED017AD3ED007A60EE078AE8EE278A83
:1052900028EE078AA0EE678A28EE080AA8EEA80A78
:1052A0001FF004FFC8EE807A05F6FC33384AC3EDE0
:1052B000007AC8EE007A04F57053C3ED007A05F663
:1052C00004431A6005F60843324A1A6098E7002939
:1052D0003FF411AF304A85F8F80B0AE7B3F5F35FF6
:1052E00029DA009B01330A2B009307F1480706F1E6
:1052F00001067FF41AAF05F5347542F260739D42E2
:1053000008F10A087FF40CAFDAF8C8310133CAF8A3
:10531000C831201D0EF0D6F807B0BDEC0A8BBDE8F1
:10532000F08F04F5B273BB623946201D05F0D6F943
:1053300001233370D5E73378002BD2D02368204681
:10534000DB6A98470C484FF04C038DF81730002269
:105350000A230DF11701006803F001FA3946201DF8
:1053600005F0FDF90023E4E7BC590020B8590020FE
:1053700030820208EE5900204856002097FF3FC1B6
:105380004C560020CDCC4C3E00003443DB0F49404E
:105390000000F04200008743CDCCCC3D704704387C
:1053A0007047704710B5102104461FF055FE204687
:1053B00010BDA0F10400F5E700228260024A0260FD
:1053C00018324260C1607047309402087047000094
:1053D00010B5034B03600446FEF737FD204610BDB1
:1053E0005894020810B50446FFF7F2FF20464FF428
:1053F000E4711FF031FE204610BD000010B50446D8
:10540000FEF77CFD014B2360204610BD5894020836
:1054100073B50446FEF71AFD1148124E0068124D8E
:105420004C238DF807300DF107010A23002203F009
:1054300096F90E4B0E4A1B683221304620F04EFF83
:1054400032223146284610F04EF9D034A564204669
:1054500009F032FC20460EF035F802B070BD00BFF6
:1054600048560020525A0020845A0020B859002083
:1054700030820208F02070474FF4A0707047292056
:10548000FCF7A4BD2820FCF7A1BD08B5FCF772FD10
:10549000CA20FCF79BFDC320FCF77CFD0820FCF72D
:1054A00079FD5020FCF776FDCF20FCF78FFD002022
:1054B000FCF770FDC120FCF76DFD3020FCF76AFDA4
:1054C000ED20FCF783FD6420FCF764FD0320FCF76E
:1054D00061FD1220FCF75EFD8120FCF75BFDE820FA
:1054E000FCF774FD8520FCF755FD0020FCF752FD0C
:1054F0007820FCF74FFDCB20FCF768FD3920FCF746
:1055000049FD2C20FCF746FD0020FCF743FD34202C
:10551000FCF740FD0220FCF73DFDF720FCF756FDAF
:105520002020FCF737FDEA20FCF750FD0020FCF7B7
:1055300031FD0020FCF72EFDB120FCF747FD0020D7
:10554000FCF728FD1B20FCF725FDB620FCF73EFDEF
:105550000A20FCF71FFDA220FCF71CFDC020FCF771
:1055600035FD1020FCF716FDC120FCF72FFD1020A3
:10557000FCF710FDC520FCF729FD4520FCF70AFDCE
:105580001520FCF707FDC720FCF720FD9020FCF755
:1055900001FD3620FCF71AFDC820FCF7FBFCF220C9
:1055A000FCF714FD0020FCF7F5FCB020FCF70EFD25
:1055B000C220FCF7EFFCB620FCF708FD0A20FCF740
:1055C000E9FCA720FCF7E6FC2720FCF7E3FC04201D
:1055D000FCF7E0FC2A20FCF7F9FC0020FCF7DAFCE1
:1055E0000020FCF7D7FC0020FCF7D4FCEF20FCF7F0
:1055F000D1FC2B20FCF7EAFC0020FCF7CBFC0020C0
:10560000FCF7C8FC0120FCF7C5FC3F20FCF7C2FCFE
:10561000F620FCF7DBFC0120FCF7BCFC0020FCF7CB
:10562000B9FC0620FCF7B6FC2C20FCF7CFFCC82008
:10563000FCF71AFD2620FCF7C9FC0120FCF7AAFCA8
:10564000E020FCF7C3FC0F20FCF7A4FC2920FCF7AA
:10565000A1FC2420FCF79EFC0C20FCF79BFC0E20F8
:10566000FCF798FC0920FCF795FC4E20FCF792FC17
:105670007820FCF78FFC3C20FCF78CFC0920FCF721
:1056800089FC1320FCF786FC0520FCF783FC17201F
:10569000FCF780FC1120FCF77DFC0020FCF77AFC75
:1056A000E120FCF793FC0020FCF774FC1620FCF7CB
:1056B00071FC1B20FCF76EFC0420FCF76BFC112036
:1056C000FCF768FC0720FCF765FC3120FCF762FC66
:1056D0003320FCF75FFC4220FCF75CFC0520FCF764
:1056E00059FC0C20FCF756FC0A20FCF753FC282040
:1056F000FCF750FC2F20FCF74DFC0F20FCF74AFC78
:105700001120FCF763FCC820FCF7AEFC2920FCF755
:105710005DFCBDE808402C20FCF758BC08B5FCF740
:1057200029FC0321D320FCF76DFC80B208BD10B525
:10573000C4B2022203212046FCF7D2FB0A20FCF768
:1057400017FC204600220321FCF7CAFBBDE81040ED
:105750000220FCF70DBC38B50446E4B2FCF7BEFBF2
:1057600000212046FCF7D4FB012105462046FCF72A
:10577000CFFB40EA052080B238BD10B5C4B240214D
:105780002046FCF7C5FB030607D54C212046FCF755
:10579000BFFB003818BF012010BD01224B2120465D
:1057A000FCF79EFB204600224B21FCF799FB0020D2
:1057B000F2E773B50423C4B20E461546D7210DEBAC
:1057C00003022046FCF7BEFB019B1BBA1A0DC3F374
:1057D0000B23328020462B8001224B21FCF780FBDB
:1057E00000224B212046FCF77BFB02B070BD00007D
:1057F00010B50A4A1378984204460DD05178884271
:105800000AD00BB141B90123D454FCF767FB204601
:10581000BDE81040FFF78BBF10BD00BFE85A002065
:1058200010B5C4B209212046FCF772FB40F001021A
:10583000D2B220460921BDE81040FCF751BB10B59B
:10584000C4B209212046FCF763FB092100F0FE02E7
:105850002046BDE81040FCF743BB38B5C4B20D4646
:1058600020460A21FCF754FB40EA0502D2B220464A
:105870000A21BDE83840FCF733BB10B50446FCF7FD
:105880002EFB20461F21FFF7E8FF2046BDE8104011
:10589000FFF7C6BF38B5C4B20D4620460A21FCF753
:1058A00037FB20EA0502D2B220460A21BDE8384083
:1058B000FCF716BB10B50446FFF7C1FF20461F21B9
:1058C000BDE81040FFF7E6BF10B5C0B20C460B2193
:1058D000FCF71EFB204010BD1F21FFF7F5BF0A4655
:1058E000C0B20B21FCF7FCBA1F21FFF7F8BF38B597
:1058F000C4B20D4620461721FCF70AFB20EA050238
:10590000D2B220461721BDE83840FCF7E9BA70B59D
:10591000C4B2064604212046FCF7FAFA042100F03E
:10592000FB0205462046FCF7DBFA3046F021FFF784
:10593000DEFF05F0F80220460421FCF7D1FA4922E7
:1059400020212046FCF7CCFA0220FCF711FB204670
:1059500001222121FCF7C4FA20469A224121FCF7BA
:10596000BFFA204601224A21FCF7BAFA204601225A
:105970004B21FCF7B5FA204600224B21FCF7B0FA88
:10598000204601225621FCF7ABFA2046012258217D
:10599000FCF7A6FA204601224021FCF7A1FA204696
:1059A000FF220B21FCF79CFABDE870400220FCF7B7
:1059B000DFBA0000054BD3F8882042F47002C3F828
:1059C00088204FF000629A60704700BF00ED00E051
:1059D00008B50B4B1A6842F400721A601A6842F458
:1059E00080621A601A6842F480721A60032000F024
:1059F0002FF80020FCF7D0FDFCF744FB002008BD89
:105A0000003C0240034A044B11681B780B441360AE
:105A1000704700BFEC5A002078000020014B186846
:105A2000704700BFEC5A002038B50446FFF7F6FF78
:105A3000631C1CBF054B1B78054618BFE418FFF715
:105A4000EDFF431BA342FAD338BD00BF780000200E
:105A50000749CA6822F4E0620302120403F4E06317
:105A6000120C134343F0BF6343F40033CB60704721
:105A700000ED00E0164B30B5DC68C4F30224C4F13D
:105A80000703251D042B28BF0423062D4FF0FF35E7
:105A90008CBF033C002405FA03F321EA0303A5406D
:105AA00022EA0502A340002843EA0203ACBF00F14A
:105AB0006040084A4FEA0313B8BF00F00F00DBB2A2
:105AC000AABF00F56140135480F8003330BD00BF19
:105AD00000ED00E014ED00E0002807DB044A410976
